:100000000C9434000C943E000C943E000C943E0082
:100010000C943E000C943E000C943E000C943E0068
:100020000C943E000C943E000C943E000C943E0058
:100030000C943E000C943E000C943E000C943E0048
:100040000C943E000C943E000C943E000C943E0038
:100050000C943E000C943E000C943E000C943E0028
:100060000C943E000C943E0011241FBECFEFD8E04C
:10007000DEBFCDBF0E9440000C94DD000C94000058
:1000800041E060E080E00E94740041E060E080E0D8
:100090000E94B5002FEF80E792E021508040904011
:1000A000E1F700C0000040E060E080E00E94B500A1
:1000B0002FEF80E792E0215080409040E1F700C0B0
:1000C0000000E3CF813021F060F0823021F006C0E3
:1000D00086E290E0089589E290E0089580E090E063
:1000E000089583E290E00895CF93DF93D62FC42F35
:1000F0000E946200FC01892BA9F1C130A1F018F027
:10010000C23009F12FC0218181E090E002C0880F48
:10011000991FDA95E2F78095922F98239183928127
:10012000892382831FC0218181E090E002C0880F73
:10013000991FDA95E2F7922F982B918392818095FF
:10014000892382830FC0218181E090E002C0880F63
:10015000991FDA95E2F7982F9095922391839281D7
:10016000892B8283DF91CF910895CF93DF93D62F90
:10017000C42F0E9462000097E9F0CC2319F0C1302F
:1001800071F018C0FC01428121E030E002C0220F72
:10019000331FDA95E2F72095242322830BC0FC015C
:1001A000428121E030E002C0220F331FDA95E2F7EE
:0E01B000242B2283DF91CF910895F894FFCF86
:00000001FF
