S01200004144435F4472697665722E737265637F
S11300000C9434000C94A7030C94D0030C94F903BF
S11300100C9422040C944B040C9451000C94510045
S11300200C9451000C9451000C9451000C94510008
S11300300C9451000C9451000C9451000C945100F8
S11300400C9451000C9451000C9451000C945100E8
S11300500C9451000C940F030C9451000C94510017
S11300600C9451000C94510011241FBECFEFD8E022
S1130070DEBFCDBF11E0A0E0B1E0E2E2F3E102C0F7
S113008005900D92A431B107D9F721E0A4E1B1E0C4
S113009001C01D92AF32B207E1F70E947F000C94B9
S11300A08F090C940000BC0180E090E00E94900550
S11300B020E030E44CE955E40E941E0620E030ECD8
S11300C04FE754E40E94EF040E946105AB0160E035
S11300D070E02AE082E291E00E94550264E071E05F
S11300E082E291E00E942F0268EE73E080E090E0EB
S11300F00E94500382E291E00E94B4020895CF93DB
S1130100DF93CDB7DEB728970FB6F894DEBF0FBEE6
S1130110CDBF80E00E94680342E062E082E00E947A
S1130120860462E080E00E948E0340E060E081E0AB
S11301300E94860420E047E060E081E00E94B8026B
S113014082E00E94000363E570E080E00E94E60222
S113015083E0898384E08A8385E08B8386E08C83D3
S11301601D821E821F821886E2E2F1E091E09083F4
S113017082E0818320E12283138294838583168223
S113018017821086CE010196928781870496948700
S11301908387CF010E9495010E94F302FFCFCF9382
S11301A0DF93EC0141E06D8188850E94C70462E021
S11301B070E080E090E00E94500340E06D8188850B
S11301C00E94C70462E070E080E090E00E94500367
S11301D0DF91CF910895EF92FF920F931F93CF93E6
S11301E0DF938C01C0E0D0E0E62EF12CA7010C2EA9
S11301F002C0559547950A94E2F74170F801A1852C
S1130200B285AC0FBD1F83859485FC01EC0FFD1FE7
S11302106C9180810E94C7042196C830D10531F7C2
S1130220C8010E94CF00DF91CF911F910F91FF90E1
S1130230EF900895EF92FF920F931F93CF93DF9364
S11302408C01C0E0D0E0E62EF12CA7010C2E02C0F8
S1130250559547950A94E2F74170F801A185B28556
S1130260AC0FBD1F83859485FC01EC0FFD1F6C91C1
S113027080810E94C7042196C430D10531F7C8019A
S11302800E94CF00DF91CF911F910F91FF90EF90CB
S113029008951F93CF93DF93EC01162F40E06B81F9
S11302A08E810E94C70440E06C818F810E94C70444
S11302B08881811105C0612FCE010E94EB000BC023
S11302C0612F62956F70CE010E941A01612F6F70C9
S11302D0CE010E941A01DF91CF911F9108951F93BF
S11302E0CF93DF93EC01162F41E06B818E810E9446
S11302F0C70440E06C818F810E94C704888181110A
S113030005C0612FCE010E94EB000BC0612F6295E6
S11303106F70CE010E941A01612F6F70CE010E948E
S11303201A01DF91CF911F910895AF92BF92CF929E
S1130330DF92EF92FF920F931F93CF93DF938C0181
S1130340FC01C080F1E0CF1621F06894FF24F3F89B
S113035003C06894FF24F2F8DD24D394F80181816A
S1130360823008F4D12CEE24E394CE1001C0E12CA9
S1130370E80123965801F6E0AF0EB11C699141E003
S11303808A810E948604CA15DB05C1F7FF20A1F00B
S1130390C0E0D0E0F801A185B285AC0FBD1F838514
S11303A09485FC01EC0FFD1F41E06C9180810E945B
S11303B086042196CF1570F362E370E080E090E04C
S11303C00E94500381E0C81206C06E2D70E0626086
S11303D0C8010E941A01EE0CEE0CEE0CEE0C6D2D11
S11303E0660F660F660F6E296062C8010E9449019C
S11303F061E070E080E090E00E9450036CE0C8018E
S11304000E94490161E070E080E090E00E945003A6
S113041061E0C8010E94490165E070E080E090E07D
S11304200E94500366E0C8010E944901DF91CF9108
S11304301F910F91FF90EF90DF90CF90BF90AF90FE
S11304400895443058F49C01E42FF0E0E050FF4F4D
S11304509081690F6068C9010E9449010895EF9273
S1130460FF920F931F93CF93DF938C017B01D0E016
S1130470C0E00FC0C8010E946F01CF5FF801828104
S1130480C81738F0DF5F4D2F60E0C8010E942102D9
S1130490C0E0F70161917F016111ECCFDF91CF9151
S11304A01F910F91FF90EF9008950F931F93CF9397
S11304B0DF93CDB7DEB764970FB6F894DEBF0FBEF7
S11304C0CDBF8C012A30A1F47F936F935F934F9338
S11304D088E091E09F938F93CE0101969F938F9331
S11304E00E94A5060FB6F894DEBF0FBECDBF2BC089
S11304F02830A1F47F936F935F934F938CE091E046
S11305009F938F93CE0101969F938F930E94A5068C
S11305100FB6F894DEBF0FBECDBF15C0203199F4DD
S11305207F936F935F934F9380E191E09F938F93B9
S1130530CE0101969F938F930E94A5060FB6F8945F
S1130540DEBF0FBECDBFBE016F5F7F4FC8010E94EB
S11305502F0264960FB6F894DEBF0FBECDBFDF91B5
S1130560CF911F910F91089561E00E944901089570
S113057020931501E8E7F0E01482A48190E4699FD8
S1130580B00111246A2B90E2299FD0011124A62BDB
S1130590A48312829281282F30E0B901660F771F5D
S11305A062957295707F7627607F7627492B642B3E
S11305B0220F331F220F331F220F331F262B2283B8
S11305C0813019F48FB780688FBF08957093170135
S11305D060931601E8E7F0E09481907F948394811E
S11305E0892B84830895E8E7F0E082818068828320
S11305F080911401882319F0828180648283089594
S1130600811104C091E09093140102C0109214016E
S1130610E8E7F0E013829381892B838308951F9286
S11306200F920FB60F9211242F933F934F935F9322
S11306306F937F938F939F93AF93BF93EF93FF93A6
S1130640E0911601F0911701309781F08091150126
S1130650813021F48091790090E007C0A8E7B0E0F0
S11306608C9111962C9190E0922B09958091140114
S1130670882329F0E8E7F0E0828180648283FF9197
S1130680EF91BF91AF919F918F917F916F915F9106
S11306904F913F912F910F900FBE0F901F9018957F
S11306A09B01AC01A6E7B4E00E948B06AB01BC0140
S11306B0DB01CA010B97A109B1094A305105610553
S11306C0710529F000000197A109B109D8F708952F
S11306D0823079F028F4882341F0813041F0089584
S11306E0833069F0843089F00895E89A13C0E99A58
S11306F011C0E8E6F0E08081816080830BC0E8E609
S1130700F0E080818260808305C0E8E6F0E08081CB
S1130710846080838FB780688FBF0895882319F021
S1130720813051F00895E9E6F0E080818C7F808388
S11307308081682B60830895E9E6F0E08081837FFF
S113074080838081660F660F682B608308951F92F3
S11307500F920FB60F9211242F933F934F935F93F1
S11307606F937F938F939F93AF93BF93EF93FF9375
S1130770E0911801F0911901309709F00995FF9162
S1130780EF91BF91AF919F918F917F916F915F9105
S11307904F913F912F910F900FBE0F901F9018957E
S11307A01F920F920FB60F9211242F933F934F93E2
S11307B05F936F937F938F939F93AF93BF93EF93C5
S11307C0FF93E0911A01F0911B01309709F009950C
S11307D0FF91EF91BF91AF919F918F917F916F9115
S11307E05F914F913F912F910F900FBE0F901F90EB
S11307F018951F920F920FB60F9211242F933F93C7
S11308004F935F936F937F938F939F93AF93BF9314
S1130810EF93FF93E0911C01F0911D01309709F0D3
S11308200995FF91EF91BF91AF919F918F917F9126
S11308306F915F914F913F912F910F900FBE0F9049
S11308401F9018951F920F920FB60F9211242F9399
S11308503F934F935F936F937F938F939F93AF9344
S1130860BF93EF93FF93E0911E01F0911F01309726
S113087009F00995FF91EF91BF91AF919F918F91ED
S11308807F916F915F914F913F912F910F900FBE88
S11308900F901F9018951F920F920FB60F9211246C
S11308A02F933F934F935F936F937F938F939F9374
S11308B0AF93BF93EF93FF93E0912001F091210157
S11308C0309709F00995FF91EF91BF91AF919F91F6
S11308D08F917F916F915F914F913F912F910F90E5
S11308E00FBE0F901F901895813021F060F0823078
S11308F021F006C086E290E0089589E290E0089530
S113090080E090E0089583E290E00895CF93DF9330
S1130910D62FC42F0E947404FC01892BA9F1C13085
S1130920A1F018F0C23009F12FC0218181E090E0DC
S113093002C0880F991FDA95E2F78095922F9823C9
S113094091839281892382831FC0218181E090E079
S113095002C0880F991FDA95E2F7922F982B9183A2
S113096092818095892382830FC0218181E090E068
S113097002C0880F991FDA95E2F7982F9095922379
S113098091839281892B8283DF91CF910895CF93B4
S1130990DF93D62FC42F0E9474040097E9F0CC2370
S11309A019F0C13071F018C0FC01428121E030E03F
S11309B002C0220F331FDA95E2F720952423228305
S11309C00BC0FC01428121E030E002C0220F331F42
S11309D0DA95E2F7242B2283DF91CF9108950E94C8
S11309E003050C94E4050E94DD0558F00E94D60529
S11309F040F029F45F3F29F00C94CD0551110C947B
S1130A0018060C94D3050E94F50568F39923B1F3F5
S1130A10552391F3951B550BBB27AA276217730720
S1130A20840738F09F5F5F4F220F331F441FAA1FB4
S1130A30A9F335D00E2E3AF0E0E832D09150504070
S1130A40E695001CCAF72BD0FE2F29D0660F771F1E
S1130A50881FBB1F261737074807AB07B0E809F004
S1130A60BB0B802DBF01FF2793585F4F3AF09E3F89
S1130A70510578F00C94CD050C9418065F3FE4F30F
S1130A80983ED4F3869577956795B795F7959F5FCC
S1130A90C9F7880F911D9695879597F90895E1E018
S1130AA0660F771F881FBB1F621773078407BA0777
S1130AB020F0621B730B840BBA0BEE1F88F7E095D2
S1130AC008950E94FD0588F09F5798F0B92F992743
S1130AD0B751B0F0E1F0660F771F881F991F1AF025
S1130AE0BA95C9F714C0B13091F00E941706B1E06D
S1130AF008950C941706672F782F8827B85F39F06C
S1130B00B93FCCF3869577956795B395D9F73EF4BD
S1130B1090958095709561957F4F8F4F9F4F089565
S1130B20E89409C097FB3EF4909580957095619583
S1130B307F4F8F4F9F4F9923A9F0F92F96E9BB2739
S1130B409395F695879577956795B795F111F8CFB5
S1130B50FAF4BB0F11F460FF1BC06F5F7F4F8F4F20
S1130B609F4F16C0882311F096E911C0772321F016
S1130B709EE8872F762F05C0662371F096E8862FAE
S1130B8070E060E02AF09A95660F771F881FDAF705
S1130B90880F9695879597F9089597F99F6780E848
S1130BA070E060E008959FEF80EC089500240A94BB
S1130BB01616170618060906089500240A94121634
S1130BC01306140605060895092E0394000C11F467
S1130BD0882352F0BB0F40F4BF2B11F460FF04C014
S1130BE06F5F7F4F8F4F9F4F089557FD9058440F6D
S1130BF0551F59F05F3F71F04795880F97FB991F78
S1130C0061F09F3F79F08795089512161306140634
S1130C10551FF2CF4695F1DF08C0161617061806C1
S1130C20991FF1CF86957105610508940895E8949C
S1130C30BB2766277727CB0197F908950E943106D1
S1130C400C94E4050E94D60538F00E94DD0520F0DE
S1130C50952311F00C94CD050C94D30511240C9418
S1130C6018060E94F50570F3959FC1F3950F50E0A7
S1130C70551F629FF001729FBB27F00DB11D639F4A
S1130C80AA27F00DB11DAA1F649F6627B00DA11DF0
S1130C90661F829F2227B00DA11D621F739FB00D96
S1130CA0A11D621F839FA00D611D221F749F332706
S1130CB0A00D611D231F849F600D211D822F762F9F
S1130CC06A2F11249F5750409AF0F1F088234AF07C
S1130CD0EE0FFF1FBB1F661F771F881F91505040E8
S1130CE0A9F79E3F510580F00C94CD050C9418068D
S1130CF05F3FE4F3983ED4F3869577956795B7956F
S1130D00F795E7959F5FC1F7FE2B880F911D969588
S1130D10879597F908950E949606A59F900DB49F14
S1130D20900DA49F800D911D11240895A29FB001E0
S1130D30B39FC001A39F700D811D1124911DB29F0B
S1130D40700D811D1124911D0895AEE0B0E0EBEA11
S1130D50F6E00C9466090D891E8986E08C831A835B
S1130D6009838FEF9FE79E838D83AE01475E5F4FBC
S1130D706F89788DCE0101960E94C706EF81F885B0
S1130D80E00FF11F10822E96E4E00C948209ABE090
S1130D90B0E0EDECF6E00C9458096C017B018A019B
S1130DA0FC0117821682838181FFCCC1CE0101969A
S1130DB03C01F6019381F70193FD859193FF8191A5
S1130DC07F01882309F4BAC1853239F493FD8591F2
S1130DD093FF81917F01853229F4B60190E00E944E
S1130DE0BE08E7CF912C212C312CFFE1F315D8F06C
S1130DF08B3279F038F4803279F08332A1F4232DE8
S1130E0020611DC08D3261F0803369F4232D21608F
S1130E1016C0832D8260382EE32DE4603E2E2AC056
S1130E20F32DF8601DC037FC2DC020ED280F2A30AB
S1130E3040F08E32B9F436FC81C1232D2064322E69
S1130E4019C036FE06C08AE0989E200D1124922E09
S1130E5011C0EAE02E9E200D1124222EF32DF06203
S1130E603F2E08C08C3621F4832D8068382E02C0B2
S1130E70883641F4F70193FD859193FF81917F01B9
S1130E808111B3CF982F9F7D9554933028F40C5F34
S1130E901F4F9FE399830DC0833631F0833771F080
S1130EA0833509F059C021C0F801808189830E5F20
S1130EB01F4F88248394912C530113C02801F2E01E
S1130EC04F0E511CF801A080B18036FE03C0692D7D
S1130ED070E002C06FEF7FEFC5010E94B3084C01C0
S1130EE08201F32DFF773F2E16C0280122E0420E27
S1130EF0511CF801A080B18036FE03C0692D70E05A
S1130F0002C06FEF7FEFC5010E94A8084C01F32DCA
S1130F10F0683F2E820133FC1BC0822D90E08816BE
S1130F209906B0F4B60180E290E00E94BE082A94CB
S1130F30F4CFF50137FC859137FE81915F01B6014D
S1130F4090E00E94BE0821102A9421E0821A9108A0
S1130F508114910471F7E8C0843611F0893641F5A3
S1130F60F80137FE07C060817181828193810C5F33
S1130F701F4F08C060817181072E000C880B990BEC
S1130F800E5F1F4FF32DFF763F2E97FF09C09095FC
S1130F908095709561957F4F8F4F9F4FF0683F2EDE
S1130FA02AE030E0A3010E94FA08882E861845C082
S1130FB0853731F4232D2F7EB22E2AE030E025C070
S1130FC0932D997FB92E8F36C1F018F4883579F0B6
S1130FD0B5C0803719F0883721F0B0C0E92FE0613F
S1130FE0BE2EB4FE0DC0FB2DF460BF2E09C034FE2E
S1130FF00AC0292F2660B22E06C028E030E005C0C2
S113100020E130E002C020E132E0F801B7FE07C081
S113101060817181828193810C5F1F4F06C0608162
S1131020718180E090E00E5F1F4FA3010E94FA08D7
S1131030882E8618FB2DFF773F2E36FE0DC0232DFC
S11310402E7FA22E891458F434FE0BC032FC09C042
S1131050832D8E7EA82E05C0B82CA32C03C0B82CDB
S113106001C0B92CA4FE0FC0FE01E80DF11D808162
S1131070803321F49A2D997EA92E09C0A2FE06C0C0
S1131080B394B39404C08A2D867809F0B394A3FC76
S113109011C0A0FE06C0B21488F4280C922C9B1830
S11310A00EC0B21460F4B60180E290E00E94BE0863
S11310B0B394F7CFB21418F42B1802C0982C212C37
S11310C0A4FE10C0B60180E390E00E94BE08A2FE18
S11310D017C0A1FC03C088E790E002C088E590E057
S11310E0B6010CC08A2D867859F0A1FE02C08BE2AD
S11310F001C080E2A7FC8DE2B60190E00E94BE0828
S1131100891438F4B60180E390E00E94BE089A94F2
S1131110F7CF8A94F301E80DF11D8081B60190E0C8
S11311200E94BE088110F5CF222009F442CEB601F8
S113113080E290E00E94BE082A94F6CFF6018681F0
S1131140978102C08FEF9FEF2B96E2E10C94740914
S1131150FC010590615070400110D8F7809590957E
S11311608E0F9F1F0895FC01615070400190011083
S1131170D8F7809590958E0F9F1F08950F931F9316
S1131180CF93DF93FB01238121FD03C08FEF9FEFFA
S11311902CC022FF16C04681578124813581421715
S11311A0530744F4A081B1819D012F5F3F4F3183E8
S11311B020838C93268137812F5F3F4F378326838B
S11311C014C08B01EC01FB010084F185E02D09952D
S11311D0892BE1F6D80116968D919C91179701966B
S11311E017969C938E931697CE01DF91CF911F9102
S11311F00F910895FA01AA27283051F1203181F185
S1131200E8946F936E7F6E5F7F4F8F4F9F4FAF4F0A
S1131210B1E03ED0B4E03CD0670F781F891F9A1F1D
S1131220A11D680F791F8A1F911DA11D6A0F711DD1
S1131230811D911DA11D20D009F468943F912AE0DD
S1131240269F11243019305D3193DEF6CF010895C5
S1131250462F4770405D4193B3E00FD0C9F7F6CFF6
S1131260462F4F70405D4A3318F0495D31FD4052BE
S1131270419302D0A9F7EACFB4E0A6959795879554
S113128077956795BA95C9F7009761057105089533
S11312909B01AC010A2E06945795479537952795DF
S11312A0BA95C9F7620F731F841F951FA01D089577
S11312B02F923F924F925F926F927F928F929F9262
S11312C0AF92BF92CF92DF92EF92FF920F931F9350
S11312D0CF93DF93CDB7DEB7CA1BDB0B0FB6F89401
S11312E0DEBF0FBECDBF09942A88398848885F8441
S11312F06E847D848C849B84AA84B984C884DF80B2
S1131300EE80FD800C811B81AA81B981CE0FD11D95
S11313100FB6F894DEBF0FBECDBFED010895F8946B
S1051320FFCFF9
S1131322004014546D562000256C6400256C6F0037
S1071332256C5800CA
S9030000FC
