S015000054696D6572735F4472697665722E73726563D0
S11300000C9434000C9451000C9451000C94510045
S11300100C9451000C9451000C9451000C94CD029A
S11300200C94F6020C941F030C9451000C94510090
S11300300C9451000C9451000C9415020C943E0243
S11300400C9467020C9451000C9451000C945100D0
S11300500C9451000C9451000C9451000C945100D8
S11300600C9451000C94510011241FBECFEFD8E022
S1130070DEBFCDBF11E0A0E0B1E0E4E6FBE002C0EA
S113008005900D92A831B107D9F721E0A8E1B1E0BC
S113009001C01D92AA33B207E1F70E9458000C94E4
S11300A0B0050C94000060E080E00E94DF00089539
S11300B041E060E080E00E949E0041E061E080E079
S11300C00E949E0041E065E082E00E949E0041E0C3
S11300D066E082E00E949E0005E023E042E063E0E7
S11300E080E00E94FF0044E660E080E00E9400029D
S11300F042E361E080E00E94000223E530E040E456
S113010052E46FE070E080E00E944101FFCF60E0C4
S113011072E18AE790E00895813021F060F0823046
S113012021F006C086E290E0089589E290E0089507
S113013080E090E0089583E290E00895CF93DF9308
S1130140D62FC42F0E948C00FC01892BA9F1C13049
S1130150A1F018F0C23009F12FC0218181E090E0B4
S113016002C0880F991FDA95E2F78095922F9823A1
S113017091839281892382831FC0218181E090E051
S113018002C0880F991FDA95E2F7922F982B91837A
S113019092818095892382830FC0218181E090E040
S11301A002C0880F991FDA95E2F7982F9095922351
S11301B091839281892B8283DF91CF910895CF938C
S11301C0C62F0E948C00009759F0FC01428121E067
S11301D030E002C0220F331FCA95E2F7242722839E
S11301E0CF910895882341F0813019F480EB90E099
S11301F0089580E090E0089584E490E00895DF920B
S1130200EF92FF920F931F93CF93DF93823088F581
S1130210D22FC42F162FD82E0E94F200FC01108278
S113022011828081212F2370422F482B80E1D89F97
S113023090011124242B80E4C89FA0011124422B97
S11302404083818112FBEE24E0F8F12CEE0CFF1CBC
S1130250EE0CFF1CEE0CFF1C802BE82AE1828D2D96
S113026090E0FC01E85CFE4F0083FC01EC5DFE4F76
S11302701083DF91CF911F910F91FF90EF90DF904A
S113028008952F923F924F925F926F927F928F9236
S11302909F92AF92BF92CF92DF92EF92FF920F9311
S11302A01F93CF93C82F6A017B015901823008F054
S11302B095C0082F10E0F801E85CFE4F90808FEFA6
S11302C0890D853008F08AC0F801EC5DFE4F80810D
S11302D0813021F4F694E794D794C7948C2F0E942C
S11302E0F2001C01F801EE0FFF1FE05EFE4FB18229
S11302F0A082E92DF0E0EE0FFF1FEE0FFF1FE0508C
S1130300FF4F4080518062807380762C652C542C82
S113031044240E9487004B015C01C701B6010E947E
S113032093046B017C01C501B40120E432E44FE085
S113033050E00E948E05C301B2010E948E05CA01DD
S1130340B9010E9493049B01AC01C701B6010E944C
S1130350F2034B015C010E9464046B017C010E9466
S113036093049B01AC01C501B4010E94850320E004
S113037030E040E853E40E9421050E9464046623AF
S113038061F08FEFC81AD80AE80AF80A6095F101FB
S11303906283F801EA5CFE4F6083000F111F000FB7
S11303A0111FF801E25DFE4FC082D182E282F38226
S11303B0CC2319F0C13051F011C0EEE6F0E0808199
S11303C0816080838FB780688FBF08C0E0E7F0E06A
S11303D08081816080838FB780688FBFCF911F91A8
S11303E00F91FF90EF90DF90CF90BF90AF909F90D0
S11303F08F907F906F905F904F903F902F900895D3
S1130400CF93DF93823070F4D42FC62F0E94F20072
S1130410CC2319F0C13021F005C0FC01D38302C004
S1130420FC01D483DF91CF9108951F920F920FB6F0
S11304300F9211242F933F934F935F936F937F9366
S11304408F939F93AF93BF93EF93FF93E0911C011E
S1130450F0911D01309709F00995FF91EF91BF913B
S1130460AF919F918F917F916F915F914F913F9148
S11304702F910F900FBE0F901F9018951F920F92FF
S11304800FB60F9211242F933F934F935F936F9363
S11304907F938F939F93AF93BF93EF93FF93E091D9
S11304A01801F0911901309709F00995FF91EF9126
S11304B0BF91AF919F918F917F916F915F914F9178
S11304C03F912F910F900FBE0F901F9018951F9280
S11304D00F920FB60F9211242F933F934F935F9374
S11304E06F937F938F939F93AF93BF93CF93DF9338
S11304F0EF93FF93E0912001F09121013097D1F126
S1130500C6E2D1E088819981AA81BB810196A11DAF
S1130510B11D88839983AA83BB8340912E01509196
S11305202F01609130017091310184179507A6075E
S1130530B70721F0452B462B472BE1F40995109280
S1130540260110922701109228011092290180910E
S11305502E0190912F01A0913001B0913101892B8E
S11305608A2B8B2B39F080912401811103C0809157
S1130570360186BDFF91EF91DF91CF91BF91AF918D
S11305809F918F917F916F915F914F913F912F91A7
S11305900F900FBE0F901F9018951F920F920FB6D9
S11305A00F9211242F933F934F935F936F937F93F5
S11305B08F939F93AF93BF93EF93FF93E0911E01AB
S11305C0F0911F01309709F00995FF91EF91BF91C8
S11305D0AF919F918F917F916F915F914F913F91D7
S11305E02F910F900FBE0F901F9018951F920F928E
S11305F00FB60F9211242F933F934F935F936F93F2
S11306007F938F939F93AF93BF93EF93FF93E09167
S11306101A01F0911B01309709F00995FF91EF91B0
S1130620BF91AF919F918F917F916F915F914F9106
S11306303F912F910F900FBE0F901F9018951F920E
S11306400F920FB60F9211242F933F934F935F9302
S11306506F937F938F939F93AF93BF93CF93DF93C6
S1130660EF93FF93E0912201F09123013097D1F1B0
S1130670C6E2D1E08C819D81AE81BF810196A11D2E
S1130680B11D8C839D83AE83BF8340913201509111
S11306903301609134017091350184179507A607E1
S11306A0B70721F0452B462B472BE1F4099510920F
S11306B02A0110922B0110922C0110922D0180918D
S11306C0320190913301A0913401B0913501892B0D
S11306D08A2B8B2B39F080912501811103C08091E5
S11306E0370186BDFF91EF91DF91CF91BF91AF911B
S11306F09F918F917F916F915F914F913F912F9136
S11307000F900FBE0F901F9018955058BB27AA2723
S11307100E949D030C94E7040E94D90438F00E94BF
S1130720E00420F039F49F3F19F426F40C94D60425
S11307300EF4E095E7FB0C94D004E92F0E94F80432
S113074058F3BA17620773078407950720F079F402
S1130750A6F50C941A050EF4E0950B2EBA2FA02DD5
S11307600B01B90190010C01CA01A0011124FF275A
S1130770591B99F0593F50F4503E68F11A16F04055
S1130780A22F232F342F4427585FF3CF4695379554
S11307902795A795F0405395C9F77EF41F16BA0B19
S11307A0620B730B840BBAF09150A1F0FF0FBB1FC7
S11307B0661F771F881FC2F70EC0BA0F621F731F10
S11307C0841F48F4879577956795B795F7959E3F6D
S11307D008F0B0CF9395880F08F09927EE0F9795FE
S11307E0879508950E9406040C94E7040E94E0048F
S11307F058F00E94D90440F029F45F3F29F00C948A
S1130800D00451110C941B050C94D6040E94F804D6
S113081068F39923B1F3552391F3951B550BBB272B
S1130820AA2762177307840738F09F5F5F4F220F70
S1130830331F441FAA1FA9F335D00E2E3AF0E0E867
S113084032D091505040E695001CCAF72BD0FE2FB1
S113085029D0660F771F881FBB1F26173707480745
S1130860AB07B0E809F0BB0B802DBF01FF279358FD
S11308705F4F3AF09E3F510578F00C94D0040C94ED
S11308801B055F3FE4F3983ED4F38695779567950F
S1130890B795F7959F5FC9F7880F911D9695879532
S11308A097F90895E1E0660F771F881FBB1F621751
S11308B073078407BA0720F0621B730B840BBA0B0F
S11308C0EE1F88F7E09508950E94000588F09F5771
S11308D098F0B92F9927B751B0F0E1F0660F771F60
S11308E0881F991F1AF0BA95C9F714C0B13091F056
S11308F00E941A05B1E008950C941A05672F782F09
S11309008827B85F39F0B93FCCF38695779567951A
S1130910B395D9F73EF490958095709561957F4F86
S11309208F4F9F4F0895E89409C097FB3EF490952C
S11309308095709561957F4F8F4F9F4F9923A9F0B4
S1130940F92F96E9BB279395F69587957795679543
S1130950B795F111F8CFFAF4BB0F11F460FF1BC087
S11309606F5F7F4F8F4F9F4F16C0882311F096E91A
S113097011C0772321F09EE8872F762F05C06623C8
S113098071F096E8862F70E060E02AF09A95660F81
S1130990771F881FDAF7880F9695879597F908953A
S11309A097F99F6780E870E060E008959FEF80EC1E
S11309B0089500240A9416161706180609060895C1
S11309C000240A9412161306140605060895092E27
S11309D00394000C11F4882352F0BB0F40F4BF2B96
S11309E011F460FF04C06F5F7F4F8F4F9F4F0895D6
S11309F057FD9058440F551F59F05F3F71F04795CC
S1130A00880F97FB991F61F09F3F79F087950895B0
S1130A10121613061406551FF2CF4695F1DF08C0CF
S1130A20161617061806991FF1CF869571056105EC
S1130A3008940895E894BB2766277727CB0197F994
S1130A4008950E9434050C94E7040E94D90438F0F8
S1130A500E94E00420F0952311F00C94D0040C942F
S1130A60D60411240C941B050E94F80470F3959F7E
S1130A70C1F3950F50E0551F629FF001729FBB2791
S1130A80F00DB11D639FAA27F00DB11DAA1F649F2D
S1130A906627B00DA11D661F829F2227B00DA11DE0
S1130AA0621F739FB00DA11D621F839FA00D611D66
S1130AB0221F749F3327A00D611D231F849F600D87
S1130AC0211D822F762F6A2F11249F5750409AF0B0
S1130AD0F1F088234AF0EE0FFF1FBB1F661F771F3C
S1130AE0881F91505040A9F79E3F510580F00C9407
S1130AF0D0040C941B055F3FE4F3983ED4F3869531
S1130B0077956795B795F795E7959F5FC1F7FE2BA6
S1130B10880F911D9695879597F90895A1E21A2E4D
S1130B20AA1BBB1BFD010DC0AA1FBB1FEE1FFF1F8D
S1130B30A217B307E407F50720F0A21BB30BE40BDD
S1130B40F50B661F771F881F991F1A9469F7609524
S1130B507095809590959B01AC01BD01CF010895DE
S1070B60F894FFCF33
S1130B640000000001000000080000004000000034
S10B0B74000100000004000070
S9030000FC
