S0130000455854495F4472697665722E737265630C
S11300000C9434000C9454010C947D010C94A601BE
S11300100C94CF010C94F8010C9446000C94460007
S11300200C9446000C9446000C9446000C94460034
S11300300C9446000C9446000C9446000C94460024
S11300400C9446000C9446000C9446000C94460014
S11300500C9446000C9446000C9446000C94460004
S11300600C9446000C94460011241FBECFEFD8E038
S1130070DEBFCDBF21E0A0E0B1E001C01D92AA30F7
S1130080B207E1F70E9457000C9487020C94000019
S113009065E082E00E947402089565E081E00E94B8
S11300A07402089562E080E00E947402089541E0C1
S11300B065E082E00E94330241E065E081E00E9455
S11300C0330241E062E080E00E94330242E062E0F9
S11300D082E00E94330242E063E082E00E94330245
S11300E042E066E080E00E94330280E00E949A00D1
S11300F081E00E949A0082E00E949A0061E086E01A
S11301000E94D90061E080E00E94C00061E081E0CB
S11301100E94C00068E470E080E00E942E016DE45B
S113012070E081E00E942E0162E570E082E00E94AE
S11301302E01FFCF823079F028F4882341F08130FA
S113014041F00895833069F0843089F00895E89A85
S113015013C0E99A11C0E8E6F0E0808181608083F1
S11301600BC0E8E6F0E080818260808305C0E8E6A9
S1130170F0E08081846080838FB780688FBF0895AA
S1130180882319F0813051F00895E9E6F0E0808188
S11301908C7F80838081682B60830895E9E6F0E09A
S11301A08081837F80838081660F660F682B6083E4
S11301B008958F3009F451C0883108F04EC0982F4B
S11301C09695969596959130D9F018F0923079F1EC
S11301D00895EBE6F0E09081877021E030E0082E8E
S11301E002C0220F331F0A94E2F7209529232083AB
S11301F0908101C0660F8A95EAF7692B60830895A0
S1130200EBE6F0E09181877021E030E0082E02C037
S1130210220F331F0A94E2F7209529232183918129
S113022001C0660F8A95EAF7692B61830895EBE6AE
S1130230F0E09281877021E030E0082E02C0220FA6
S1130240331F0A94E2F7209529232283928101C067
S1130250660F8A95EAF7692B628308958230A9F0C4
S113026028F4882341F0813059F00895833091F0C7
S11302708430A9F0089570930101609300010895FA
S113028070930301609302010895709305016093D4
S11302900401089570930701609306010895709313
S11302A009016093080108951F920F920FB60F92EF
S11302B011242F933F934F935F936F937F938F9367
S11302C09F93AF93BF93EF93FF93E0910001F0915D
S11302D00101309709F00995FF91EF91BF91AF911A
S11302E09F918F917F916F915F914F913F912F914A
S11302F00F900FBE0F901F9018951F920F920FB67C
S11303000F9211242F933F934F935F936F937F9397
S11303108F939F93AF93BF93EF93FF93E091020169
S1130320F0910301309709F00995FF91EF91BF9186
S1130330AF919F918F917F916F915F914F913F9179
S11303402F910F900FBE0F901F9018951F920F9230
S11303500FB60F9211242F933F934F935F936F9394
S11303607F938F939F93AF93BF93EF93FF93E0910A
S11303700401F0910501309709F00995FF91EF917F
S1130380BF91AF919F918F917F916F915F914F91A9
S11303903F912F910F900FBE0F901F9018951F92B1
S11303A00F920FB60F9211242F933F934F935F93A5
S11303B06F937F938F939F93AF93BF93EF93FF9329
S11303C0E0910601F0910701309709F00995FF913A
S11303D0EF91BF91AF919F918F917F916F915F91B9
S11303E04F913F912F910F900FBE0F901F90189532
S11303F01F920F920FB60F9211242F933F934F9396
S11304005F936F937F938F939F93AF93BF93EF9378
S1130410FF93E0910801F0910901309709F00995E3
S1130420FF91EF91BF91AF919F918F917F916F91C8
S11304305F914F913F912F910F900FBE0F901F909E
S11304401895813021F060F0823021F006C086E2F8
S113045090E0089589E290E0089580E090E00895A6
S113046083E290E00895CF93DF93D62FC42F0E94A8
S11304702102FC01892BA9F1C130A1F018F0C2308E
S113048009F12FC0218181E090E002C0880F991FFB
S1130490DA95E2F78095922F9823918392818923AC
S11304A082831FC0218181E090E002C0880F991FE0
S11304B0DA95E2F7922F982B918392818095892384
S11304C082830FC0218181E090E002C0880F991FD0
S11304D0DA95E2F7982F9095922391839281892B54
S11304E08283DF91CF910895CF93C62F0E9421027A
S11304F0009759F0FC01428121E030E002C0220F54
S1130500331FCA95E2F724272283CF910895F894E4
S1050510FFCF17
S9030000FC
